10000000000000000000000000    Sterbom Indústria e Comércio LTDA  Natal                         RN00364313532006040120060401331
11BR 304                            00000Km - 305              B. Industrial  59150000Roberto                     000036431353
5040771560000164201221900     20060401RN010011000645401P000000001369900000000131000000000002227000000000000000000000000001700N
5010700961000243200261428     20060401RN010011000655401P000000003449000000000323000000000005491000000000000000000000000001700N
5000004164092459ISENTO        20060401RN010011000665401P000000002266400000000203800000000003465000000000000000000000000001700N
5001604711000138200831291     20060401RN010011000675401P000000000944700000000088500000000001505000000000000000000000000001700N
5040764664000141200379429     20060401RN010011000685401P000000000996500000000090400000000001537000000000000000000000000001700N
5000024165158453ISENTO        20060401RN010011000695401P000000000705100000000063400000000001078000000000000000000000000001700N
5000031700071491ISENTO        20060401RN010011000705401P000000001207600000000108600000000001846000000000000000000000000001700N
5035284025000149200331515     20060401RN010011000715401P000000001513600000000141750000000002409000000000000000000000000001700N
5000022142045472ISENTO        20060401RN010011000725401P000000000825200000000075000000000001275000000000000000000000000001700N
5000036988863400ISENTO        20060401RN010011000735401P000000002138100000000194600000000003309000000000000000000000000001700N
5000002099493413ISENTO        20060401RN010011000745401P000000001494000000000134800000000002292000000000000000000000000001700N
5008229791000138200191322     20060401RN010011000755401P000000000925300000000083200000000001414000000000000000000000000001700N
5000032866305434ISENTO        20060401RN010011000765401P000000003377000000000324000000000005508000000000000000000000000001700N
5000394452003110ISENTO        20060401RN010011000775401P000000002046800000000196600000000003340000000000000000000000000001700N
5002754284000137200812645     20060401RN010011000785401P000000001254500000000113500000000001929000000000000000000000000001700N
5024206617001360200794744     20060401RN010011000795401P000000000632000000000060000000000001020000000000000000000000000001700N
5000059676370444ISENTO        20060401RN010011000805401P000000001574900000000142300000000002418000000000000000000000000001700N
5003387988000181201414848     20060401RN010011000815401P000000001434700000000130500000000002221000000000000000000000000001700N
5024206617001440ISENTO        20060401RN010011000825401P000000000948000000000090000000000001530000000000000000000000000001700N
5024206617001440200806351     20060401RN010011000835401P000000000948000000000090000000000001530000000000000000000000000001700N
5024206617000207ISENTO        20060401RN010011000845401P000000000948000000000090000000000001530000000000000000000000000001700N
5008463473000137200006673     20060401RN010011000855401P000000002568500000000232100000000003946000000000000000000000000001700N
5070046297000101ISENTO        20060401RN010011000865401P000000001025300000000092200000000001567000000000000000000000000001700N
5003129116000113200823590     20060401RN010011000875401P000000000590000000000055000000000000935000000000000000000000000001700S
5003129116000113200823590     20060401RN010011000885401P000000000236000000000022000000000000374000000000000000000000000001700S
5003129116000113200823590     20060401RN010011000895401P000000000236000000000022000000000000374000000000000000000000000001700N
5003129116000113200823590     20060401RN010011000905401P000000000590000000000055000000000000935000000000000000000000000001700N
5000000126168423ISENTO        20060401PB010011000916908P000000008000000000000000000000000000000000000008000000000000000000000S
5040803546000103200371614     20060401RN010011000925401P000000000384000000000036000000000000612000000000000000000000000001700N
5005919655000181200950002     20060401RN010011000935401P000000000165600000000015600000000000265000000000000000000000000001700N
5040776890000142200353667     20060401RN010011000945401P000000000648000000000060000000000001020000000000000000000000000001700N
5010869428000129200779095     20060401RN010011000955401P000000000552000000000052000000000000884000000000000000000000000001700N
5005959479000292200969145     20060401RN010011000965401P000000005217000000000489000000000008314000000000000000000000000001700N
5003066662000152200820893     20060401RN010011000975904P000000006344800000000594500000000010107000000000000000000000000001700N
5007030370000110200991558     20060401RN010010000075401P000000000630600000000060000000000001020000000000000000000000000001700N
5007030370000110200991558     20060401RN010010000085401P000000000945900000000090000000000001530000000000000000000000000001700N
5002109397000180ISENTO        20060401RN010010000095401P000000000844200000000079200000000001345000000000000000000000000001700N
5008328353000127ISENTO        20060401RN010010000105401P000000000960000000000096000000000001632000000000000000000000000001700N
5008328353000127ISENTO        20060401RN010010000115401P000000001516000000000151600000000002577000000000000000000000000001700N
5040776890000142200353667     20060401RN010011000555401P000000000756000000000070000000000001190000000000000000000000000001700N
5040776890000142200353667     20060401RN010011000565401P000000000540000000000050000000000000850000000000000000000000000001700N
5002724310000184200883984     20060401RN010011000575401P000000049599000000004526100000000076944000000000000000000000000001700N
5024206617000479200362119     20060401RN010011000585401P000000000837400000000079500000000001352000000000000000000000000001700N
5002398404000100200940147     20060401RN010011000595401P000000001948500000000182800000000003107000000000000000000000000001700N
5007483327000100202000770     20060401RN010011000605401P000000001960800000000188000000000003196000000000000000000000000001700N
5002110010000105200840037     20060401RN010011000615401P000000001894200000000178000000000003028000000000000000000000000001700N
5000000126168423ISENTO        20060401PB010011000626401P000000003093700000000285600000000004854000000000000000000000000001700S
5004445343000110200886100     20060401RN010011000635401P000000001118400000000102600000000001745000000000000000000000000001700N
5140771560000164201221900     20060401RN00110006454010000000000000000000000000000000000131000000000000000                    N
5110700961000243200261428     20060401RN00110006554010000000028700000000000040000000000036000000000000000                    N
5100004164092459ISENTO        20060401RN00110006654010000000020380000000000101900000000000000000000000000                    N
5101604711000138200831291     20060401RN00110006754010000000008850000000000012000000000000000000000000000                    N
5140764664000141200379429     20060401RN00110006854010000000007540000000000037700000000015000000000000000                    N
5100024165158453ISENTO        20060401RN00110006954010000000006340000000000031700000000000000000000000000                    N
5100031700071491ISENTO        20060401RN00110007054010000000010860000000000054300000000000000000000000000                    N
5135284025000149200331515     20060401RN00110007154010000000008175000000000012000000000060000000000000000                    N
5100022142045472ISENTO        20060401RN00110007254010000000006000000000000030000000000015000000000000000                    N
5100036988863400ISENTO        20060401RN00110007354010000000017210000000000075800000000022500000000000000                    N
5100002099493413ISENTO        20060401RN00110007454010000000013480000000000063400000000000000000000000000                    N
5108229791000138200191322     20060401RN00110007554010000000008320000000000041600000000000000000000000000                    N
5100032866305434ISENTO        20060401RN00110007654010000000000000000000000000000000000324000000000000000                    N
5100394452003110ISENTO        20060401RN00110007754010000000019660000000000080800000000000000000000000000                    N
5102754284000137200812645     20060401RN00110007854010000000011350000000000050500000000000000000000000000                    N
5124206617001360200794744     20060401RN00110007954010000000000000000000000000000000000060000000000000000                    N
5100059676370444ISENTO        20060401RN00110008054010000000014230000000000064900000000000000000000000000                    N
5103387988000181201414848     20060401RN00110008154010000000013050000000000051700000000000000000000000000                    N
5124206617001440ISENTO        20060401RN00110008254010000000000000000000000000000000000090000000000000000                    N
5124206617001440200806351     20060401RN00110008354010000000000000000000000000000000000090000000000000000                    N
5124206617000207ISENTO        20060401RN00110008454010000000000000000000000000000000000090000000000000000                    N
5108463473000137200006673     20060401RN00110008554010000000023210000000000105800000000000000000000000000                    N
5170046297000101ISENTO        20060401RN00110008654010000000009220000000000046100000000000000000000000000                    N
5103129116000113200823590     20060401RN00110008754010000000000000000000000000000000000055000000000000000                    S
5103129116000113200823590     20060401RN00110008854010000000000000000000000000000000000022000000000000000                    S
5103129116000113200823590     20060401RN00110008954010000000000000000000000000000000000022000000000000000                    N
5103129116000113200823590     20060401RN00110009054010000000000000000000000000000000000055000000000000000                    N
5100000126168423ISENTO        20060401PB00110009169080000000000000000000000000000000000800000000000000000                    S
5140803546000103200371614     20060401RN00110009254010000000000000000000000000000000000036000000000000000                    N
5105919655000181200950002     20060401RN00110009354010000000000000000000000000000000000015600000000000000                    N
5140776890000142200353667     20060401RN00110009454010000000000000000000000000000000000060000000000000000                    N
5110869428000129200779095     20060401RN00110009554010000000000000000000000000000000000052000000000000000                    N
5105959479000292200969145     20060401RN00110009654010000000036900000000000048000000000120000000000000000                    N
5103066662000152200820893     20060401RN00110009759040000000043630000000000069900000000158200000000000000                    N
5107030370000110200991558     20060401RN00100000754010000000000000000000000000000000000060000000000000000                    N
5107030370000110200991558     20060401RN00100000854010000000000000000000000000000000000090000000000000000                    N
5102109397000180ISENTO        20060401RN00100000954010000000007920000000000009600000000000000000000000000                    N
5108328353000127ISENTO        20060401RN00100001054010000000000000000000000000000000000096000000000000000                    N
5108328353000127ISENTO        20060401RN00100001154010000000000000000000000000000000000151600000000000000                    N
5140776890000142200353667     20060401RN00110005554010000000000000000000000000000000000070000000000000000                    N
5140776890000142200353667     20060401RN00110005654010000000000000000000000000000000000050000000000000000                    N
5102724310000184200883984     20060401RN00110005754010000000428110000000001539500000000245000000000000000                    N
5124206617000479200362119     20060401RN00110005854010000000000000000000000000000000000079500000000000000                    N
5102398404000100200940147     20060401RN00110005954010000000018280000000000022400000000000000000000000000                    N
5107483327000100202000770     20060401RN00110006054010000000000000000000000000000000000188000000000000000                    N
5102110010000105200840037     20060401RN00110006154010000000016000000000000016800000000018000000000000000                    N
5100000126168423ISENTO        20060401PB00110006264010000000028560000000000075600000000000000000000000000                    S
5104445343000110200886100     20060401RN00110006354010000000007260000000000032300000000030000000000000000                    N
5304445343000110200886100     20060401RN010011000635401P000000001285700000000006010000000000000N1                             
5340771560000164201221900     20060401RN010011000645401P000000001662400000000005990000000000000N1                             
5310700961000243200261428     20060401RN010011000655401P000000004143200000000017900000000000000N1                             
5300004164092459ISENTO        20060401RN010011000665401P000000002781900000000012650000000000000N1                             
5301604711000138200831291     20060401RN010011000675401P000000001165500000000004770000000000000N1                             
5340764664000141200379429     20060401RN010011000685401P000000001179200000000005480000000000000N1                             
5300024165158453ISENTO        20060401RN010011000695401P000000000865400000000003940000000000000N1                             
5300031700071491ISENTO        20060401RN010011000705401P000000001482400000000006730000000000000N1                             
5335284025000149200331515     20060401RN010011000715401P000000001678200000000008410000000000000N1                             
5300022142045472ISENTO        20060401RN010011000725401P000000000969000000000004520000000000000N1                             
5300036988863400ISENTO        20060401RN010011000735401P000000002560700000000011630000000000000N1                             
5300002099493413ISENTO        20060401RN010011000745401P000000001834700000000008260000000000000N1                             
5308229791000138200191322     20060401RN010011000755401P000000001135700000000005170000000000000N1                             
5300032866305434ISENTO        20060401RN010011000765401P000000003240000000000013700000000000000N1                             
5302754284000137200812645     20060401RN010011000785401P000000001541100000000006900000000000000N1                             
5324206617001360200794744     20060401RN010011000795401P000000000600000000000003200000000000000N1                             
5300059676370444ISENTO        20060401RN010011000805401P000000001934200000000008700000000000000N1                             
5303387988000181201414848     20060401RN010011000815401P000000001763600000000007800000000000000N1                             
5324206617001440ISENTO        20060401RN010011000825401P000000000900000000000004800000000000000N1                             
5324206617001440200806351     20060401RN010011000835401P000000000900000000000004800000000000000N1                             
5324206617000207ISENTO        20060401RN010011000845401P000000000900000000000004800000000000000N1                             
5308463473000137200006673     20060401RN010011000855401P000000003154600000000014170000000000000N1                             
5370046297000101ISENTO        20060401RN010011000865401P000000001258600000000005720000000000000N1                             
5303129116000113200823590     20060401RN010011000875401P000000000550000000000004000000000000000S1                             
5303129116000113200823590     20060401RN010011000885401P000000000220000000000001600000000000000S1                             
5303129116000113200823590     20060401RN010011000895401P000000000220000000000001600000000000000N1                             
5303129116000113200823590     20060401RN010011000905401P000000000550000000000004000000000000000N1                             
5340803546000103200371614     20060401RN010011000925401P000000000360000000000002400000000000000N1                             
5305919655000181200950002     20060401RN010011000935401P000000000156000000000000960000000000000N1                             
5340776890000142200353667     20060401RN010011000945401P000000000600000000000004800000000000000N1                             
5310869428000129200779095     20060401RN010011000955401P000000000520000000000003200000000000000N1                             
5305959479000292200969145     20060401RN010011000965401P000000006059500000000027900000000000000N1                             
5303066662000152200820893     20060401RN010011000975904P000000007747400000000032990000000000000N1                             
5307030370000110200991558     20060401RN010010000075401P000000000780000000000003060000000000000N1                             
5307030370000110200991558     20060401RN010010000085401P000000001170000000000004590000000000000N1                             
5302109397000180ISENTO        20060401RN010010000095401P000000001042100000000004260000000000000N1                             
5340776890000142200353667     20060401RN010011000555401P000000000700000000000005600000000000000N1                             
5340776890000142200353667     20060401RN010011000565401P000000000500000000000004000000000000000N1                             
5302724310000184200883984     20060401RN010011000575401P000000060105600000000279850000000000000N1                             
5324206617000479200362119     20060401RN010011000585401P000000000795000000000004240000000000000N1                             
5302398404000100200940147     20060401RN010011000595401P000000002405500000000009810000000000000N1                             
5307483327000100202000770     20060401RN010011000605401P000000001880000000000008080000000000000N1                             
5302110010000105200840037     20060401RN010011000615401P000000002281900000000009740000000000000N1                             
5300000126168423ISENTO        20060401PB010011000626401P000000003810900000000016210000000000000S1                             
5400000126168423010011000626401100001671           000000010000000000024600000000000000000000024600000000033580000000001231700
5400000126168423010011000626401100002668           000000010000000000025200000000000000000000025200000000034400000000001261700
54000001261684230100110006264011000031325          000000010000000000024600000000000000000000024600000000033580000000001231700
54000001261684230100110006264011000041615          000000010000000000016200000000000000000000016200000000022110000000000811700
540000012616842301001100062640110000569            000000010000000000030000000000000000000000030000000000039490000000000381700
540000012616842301001100062640110000670            000000010000000000030000000000000000000000030000000000039490000000000381700
540000012616842301001100062640110000775            000000010000000000030000000000000000000000030000000000039490000000000381700
540000012616842301001100062640110000890            000000010000000000030000000000000000000000030000000000039490000000000381700
540000012616842301001100062640110000988            000000010000000000030000000000000000000000030000000000039490000000000381700
540000012616842301001100062640110001092            000000010000000000030000000000000000000000030000000000039490000000000381700
540000012616842301001100062640110001163            000000010000000000015000000000000000000000015000000000020480000000000751700
5400000126168423010011000626401   991              000000010000000000000000000000000000000000000000000000000000000000000000000
5400000126168423010011000626401   992              000000010000000000000000000000000000000000000000000000000000000000000000000
5400000126168423010011000626401   999              000000010000000000000000000000000000000000000000000000000000000000000000000
5400000126168423010011000916908100001652           000000010000000000800000000000000000000000000000000000000000000000000000000
5400000126168423010011000916908   991              000000010000000000000000000000000000000000000000000000000000000000000000000
5400000126168423010011000916908   992              000000010000000000000000000000000000000000000000000000000000000000000000000
5400000126168423010011000916908   999              000000010000000000000000000000000000000000000000000000000000000000000000000
54000020994934130100110007454011000011625          000000010000000000025600000000000000000000025600000000034940000000001281700
54000020994934130100110007454011000021737          000000010000000000019200000000000000000000019200000000026210000000000961700
5400002099493413010011000745401100003122           000000010000000000011400000000000000000000011400000000015560000000000571700
54000020994934130100110007454011000041491          000000020000000000012000000000000000000000012000000000016380000000000601700
54000020994934130100110007454011000051195          000000010000000000006000000000000000000000006000000000008190000000000301700
5400002099493413010011000745401100006121           000000010000000000012600000000000000000000012600000000017200000000000631700
54000020994934130100110007454011000071975          000000010000000000036000000000000000000000036000000000049140000000001801700
5400002099493413010011000745401100008662           000000020000000000004800000000000000000000004800000000006340000000000081700
54000020994934130100110007454011000091211          000000020000000000004800000000000000000000004800000000006340000000000081700
5400002099493413010011000745401100010664           000000010000000000002400000000000000000000002400000000003170000000000041700
5400002099493413010011000745401   991              000000010000000000000000000000000000000000000000000000000000000000000000000
5400002099493413010011000745401   992              000000010000000000000000000000000000000000000000000000000000000000000000000
5400002099493413010011000745401   999              000000010000000000000000000000000000000000000000000000000000000000000000000
5400004164092459010011000665401100001118           000000010000000000011400000000000000000000011400000000015560000000000571700
5400004164092459010011000665401100002114           000000010000000000011400000000000000000000011400000000015560000000000571700
54000041640924590100110006654011000031323          000000010000000000011400000000000000000000011400000000015560000000000571700
54000041640924590100110006654011000041321          000000010000000000011400000000000000000000011400000000015560000000000571700
5400004164092459010011000665401100005126           000000010000000000011400000000000000000000011400000000015560000000000571700
5400004164092459010011000665401100006116           000000010000000000012600000000000000000000012600000000017200000000000631700
5400004164092459010011000665401100007119           000000010000000000012600000000000000000000012600000000017200000000000631700
54000041640924590100110006654011000081619          000000010000000000028000000000000000000000028000000000038220000000001401700
54000041640924590100110006654011000091325          000000010000000000024600000000000000000000024600000000033580000000001231700
5400004164092459010011000665401100010107           000000010000000000024000000000000000000000024000000000032760000000001201700
54000041640924590100110006654011000111491          000000020000000000012000000000000000000000012000000000016380000000000601700
54000041640924590100110006654011000121195          000000010000000000006000000000000000000000006000000000008190000000000301700
54000041640924590100110006654011000131615          000000010000000000014400000000000000000000014400000000019660000000000721700
5400004164092459010011000665401100014121           000000010000000000012600000000000000000000012600000000017200000000000631700
5400004164092459010011000665401   991              000000010000000000000000000000000000000000000000000000000000000000000000000
5400004164092459010011000665401   992              000000010000000000000000000000000000000000000000000000000000000000000000000
5400004164092459010011000665401   999              000000010000000000000000000000000000000000000000000000000000000000000000000
54000221420454720100110007254011000011             000000100000000000015000000000000000000000015000000000015000000000000001700
54000221420454720100110007254011000021737          000000010000000000019200000000000000000000019200000000026210000000000961700
5400022142045472010011000725401100003118           000000010000000000011400000000000000000000011400000000015560000000000571700
5400022142045472010011000725401100004130           000000010000000000011400000000000000000000011400000000015560000000000571700
54000221420454720100110007254011000051491          000000020000000000012000000000000000000000012000000000016380000000000601700
54000221420454720100110007254011000061195          000000010000000000006000000000000000000000006000000000008190000000000301700
5400022142045472010011000725401   991              000000010000000000000000000000000000000000000000000000000000000000000000000
5400022142045472010011000725401   992              000000010000000000000000000000000000000000000000000000000000000000000000000
5400022142045472010011000725401   999              000000010000000000000000000000000000000000000000000000000000000000000000000
54000241651584530100110006954011000011619          000000010000000000028000000000000000000000028000000000038220000000001401700
5400024165158453010011000695401100002114           000000010000000000011400000000000000000000011400000000015560000000000571700
5400024165158453010011000695401100003116           000000010000000000012600000000000000000000012600000000017200000000000631700
54000241651584530100110006954011000041323          000000010000000000011400000000000000000000011400000000015560000000000571700
5400024165158453010011000695401   991              000000010000000000000000000000000000000000000000000000000000000000000000000
5400024165158453010011000695401   992              000000010000000000000000000000000000000000000000000000000000000000000000000
5400024165158453010011000695401   999              000000010000000000000000000000000000000000000000000000000000000000000000000
54000317000714910100110007054011000011491          000000020000000000012000000000000000000000012000000000016380000000000601700
54000317000714910100110007054011000021195          000000010000000000006000000000000000000000006000000000008190000000000301700
54000317000714910100110007054011000031196          000000010000000000006000000000000000000000006000000000008190000000000301700
5400031700071491010011000705401100004114           000000010000000000011400000000000000000000011400000000015560000000000571700
5400031700071491010011000705401100005121           000000010000000000012600000000000000000000012600000000017200000000000631700
54000317000714910100110007054011000061585          000000010000000000024600000000000000000000024600000000033580000000001231700
54000317000714910100110007054011000071975          000000010000000000036000000000000000000000036000000000049140000000001801700
5400031700071491010011000705401   991              000000010000000000000000000000000000000000000000000000000000000000000000000
5400031700071491010011000705401   992              000000010000000000000000000000000000000000000000000000000000000000000000000
5400031700071491010011000705401   999              000000010000000000000000000000000000000000000000000000000000000000000000000
54000328663054340100110007654011000011941          000000500000000000300000000000000000000000300000000000300000000000000001700
54000328663054340100110007654011000021940          000000020000000000024000000000000000000000024000000000024000000000000001700
5400032866305434010011000765401   991              000000010000000000000000000000000000000000000000000000000000000000000000000
5400032866305434010011000765401   992              000000010000000000000000000000000000000000000000000000000000000000000000000
5400032866305434010011000765401   999              000000010000000000000000000000000000000000000000000000000000000000000000000
54000369888634000100110007354011000011             000000150000000000022500000000000000000000022500000000022500000000000001700
54000369888634000100110007354011000021491          000000020000000000012000000000000000000000012000000000016380000000000601700
54000369888634000100110007354011000031195          000000010000000000006000000000000000000000006000000000008190000000000301700
54000369888634000100110007354011000041514          000000010000000000006000000000000000000000006000000000008190000000000301700
54000369888634000100110007354011000051196          000000010000000000006000000000000000000000006000000000008190000000000301700
540003698886340001001100073540110000663            000000010000000000013800000000000000000000013800000000018840000000000691700
54000369888634000100110007354011000071615          000000010000000000014400000000000000000000014400000000019660000000000721700
54000369888634000100110007354011000081737          000000010000000000019200000000000000000000019200000000026210000000000961700
54000369888634000100110007354011000091625          000000010000000000025600000000000000000000025600000000034940000000001281700
5400036988863400010011000735401100010116           000000010000000000012600000000000000000000012600000000017200000000000631700
54000369888634000100110007354011000111619          000000010000000000028000000000000000000000028000000000038220000000001401700
5400036988863400010011000735401100012583           000000020000000000006600000000000000000000006600000000008680000000000081700
5400036988863400010011000735401100013585           000000010000000000003300000000000000000000003300000000004340000000000041700
5400036988863400010011000735401100014586           000000020000000000006600000000000000000000006600000000008680000000000081700
5400036988863400010011000735401100015662           000000020000000000004800000000000000000000004800000000006340000000000081700
5400036988863400010011000735401100016664           000000020000000000004800000000000000000000004800000000006340000000000081700
54000369888634000100110007354011000171211          000000010000000000002400000000000000000000002400000000003170000000000041700
5400036988863400010011000735401   991              000000010000000000000000000000000000000000000000000000000000000000000000000
5400036988863400010011000735401   992              000000010000000000000000000000000000000000000000000000000000000000000000000
5400036988863400010011000735401   999              000000010000000000000000000000000000000000000000000000000000000000000000000
54000596763704440100110008054011000011619          000000010000000000028000000000000000000000028000000000038220000000001401700
54000596763704440100110008054011000021737          000000010000000000019200000000000000000000019200000000026210000000000961700
54000596763704440100110008054011000031325          000000010000000000024600000000000000000000024600000000033580000000001231700
5400059676370444010011000805401100004114           000000010000000000011400000000000000000000011400000000015560000000000571700
54000596763704440100110008054011000051585          000000010000000000024600000000000000000000024600000000033580000000001231700
54000596763704440100110008054011000061195          000000010000000000006000000000000000000000006000000000008190000000000301700
54000596763704440100110008054011000071492          000000010000000000006000000000000000000000006000000000008190000000000301700
54000596763704440100110008054011000081514          000000010000000000006000000000000000000000006000000000008190000000000301700
5400059676370444010011000805401100009583           000000020000000000006600000000000000000000006600000000008680000000000081700
5400059676370444010011000805401100010586           000000010000000000003300000000000000000000003300000000004340000000000041700
5400059676370444010011000805401100011585           000000010000000000003300000000000000000000003300000000004340000000000041700
5400059676370444010011000805401100012580           000000010000000000003300000000000000000000003300000000004340000000000041700
5400059676370444010011000805401   991              000000010000000000000000000000000000000000000000000000000000000000000000000
5400059676370444010011000805401   992              000000010000000000000000000000000000000000000000000000000000000000000000000
5400059676370444010011000805401   999              000000010000000000000000000000000000000000000000000000000000000000000000000
54003944520031100100110007754011000011736          000000010000000000019200000000000000000000019200000000000000000000000961700
54003944520031100100110007754011000021737          000000010000000000019200000000000000000000019200000000000000000000000961700
54003944520031100100110007754011000031619          000000010000000000028000000000000000000000028000000000000000000000001401700
5400394452003110010011000775401100004118           000000010000000000011400000000000000000000011400000000000000000000000571700
5400394452003110010011000775401100005126           000000010000000000011400000000000000000000011400000000000000000000000571700
54003944520031100100110007754011000061325          000000010000000000024600000000000000000000024600000000000000000000001231700
5400394452003110010011000775401100007670           000000010000000000024600000000000000000000024600000000000000000000001231700
54003944520031100100110007754011000081491          000000010000000000006000000000000000000000006000000000000000000000000301700
54003944520031100100110007754011000091195          000000010000000000006000000000000000000000006000000000000000000000000301700
5400394452003110010011000775401100010583           000000020000000000006600000000000000000000006600000000000000000000000081700
5400394452003110010011000775401100011586           000000020000000000006600000000000000000000006600000000000000000000000081700
5400394452003110010011000775401100012585           000000020000000000006600000000000000000000006600000000000000000000000081700
5400394452003110010011000775401100013580           000000020000000000006600000000000000000000006600000000000000000000000081700
5400394452003110010011000775401100014584           000000020000000000006600000000000000000000006600000000000000000000000081700
5400394452003110010011000775401100015579           000000020000000000006600000000000000000000006600000000000000000000000081700
5400394452003110010011000775401100016574           000000010000000000003300000000000000000000003300000000000000000000000041700
5400394452003110010011000775401100017576           000000010000000000003300000000000000000000003300000000000000000000000041700
5400394452003110010011000775401   991              000000010000000000000000000000000000000000000000000000000000000000000000000
5400394452003110010011000775401   992              000000010000000000000000000000000000000000000000000000000000000000000000000
5400394452003110010011000775401   999              000000010000000000000000000000000000000000000000000000000000000000000000000
5401604711000138010011000675401100001576           000000020000000000006600000000000000000000006600000000008680000000000081700
5401604711000138010011000675401100002575           000000020000000000006600000000000000000000006600000000008680000000000081700
5401604711000138010011000675401100003574           000000020000000000006600000000000000000000006600000000008680000000000081700
5401604711000138010011000675401100004583           000000010000000000003300000000000000000000003300000000004340000000000041700
5401604711000138010011000675401100005585           000000010000000000003300000000000000000000003300000000004340000000000041700
5401604711000138010011000675401100006586           000000010000000000003300000000000000000000003300000000004340000000000041700
5401604711000138010011000675401100007580           000000010000000000003300000000000000000000003300000000004340000000000041700
5401604711000138010011000675401100008653           000000020000000000004800000000000000000000004800000000006340000000000081700
5401604711000138010011000675401100009655           000000020000000000004800000000000000000000004800000000006340000000000081700
5401604711000138010011000675401100010662           000000020000000000004800000000000000000000004800000000006340000000000081700
5401604711000138010011000675401100011664           000000020000000000004800000000000000000000004800000000006340000000000081700
54016047110001380100110006754011000121211          000000020000000000004800000000000000000000004800000000006340000000000081700
5401604711000138010011000675401100013527           000000010000000000006300000000000000000000006300000000008290000000000081700
5401604711000138010011000675401100014528           000000010000000000006300000000000000000000006300000000008290000000000081700
54016047110001380100110006754011000151617          000000010000000000006300000000000000000000006300000000008290000000000081700
54016047110001380100110006754011000161616          000000010000000000006300000000000000000000006300000000008290000000000081700
5401604711000138010011000675401100017649           000000010000000000006300000000000000000000006300000000008290000000000081700
5401604711000138010011000675401   991              000000010000000000000000000000000000000000000000000000000000000000000000000
5401604711000138010011000675401   992              000000010000000000000000000000000000000000000000000000000000000000000000000
5401604711000138010011000675401   999              000000010000000000000000000000000000000000000000000000000000000000000000000
5402109397000180010010000095401100001530           000000060000000000039600000000000000000000039600000000052100000000000481700
5402109397000180010010000095401100002528           000000020000000000013200000000000000000000013200000000017370000000000161700
5402109397000180010010000095401100003535           000000020000000000013200000000000000000000013200000000017370000000000161700
5402109397000180010010000095401100004536           000000020000000000013200000000000000000000013200000000017370000000000161700
5402109397000180010010000095401   991              000000010000000000000000000000000000000000000000000000000000000000000000000
5402109397000180010010000095401   992              000000010000000000000000000000000000000000000000000000000000000000000000000
5402109397000180010010000095401   999              000000010000000000000000000000000000000000000000000000000000000000000000000
54021100100001050100110006154011000011             000000150000000000018000000000000000000000018000000000018000000000000001700
54021100100001050100110006154011000021541          000000020000000000012400000000000000000000012400000000016220000000000081700
54021100100001050100110006154011000031546          000000020000000000012400000000000000000000012400000000016220000000000081700
54021100100001050100110006154011000041545          000000020000000000012400000000000000000000012400000000016220000000000081700
5402110010000105010011000615401100005579           000000040000000000014400000000000000000000014400000000018930000000000161700
5402110010000105010011000615401100006584           000000040000000000014400000000000000000000014400000000018930000000000161700
5402110010000105010011000615401100007583           000000040000000000014400000000000000000000014400000000018930000000000161700
5402110010000105010011000615401100008585           000000040000000000014400000000000000000000014400000000018930000000000161700
5402110010000105010011000615401100009586           000000040000000000014400000000000000000000014400000000018930000000000161700
5402110010000105010011000615401100010535           000000040000000000025400000000000000000000025400000000033440000000000321700
5402110010000105010011000615401100011538           000000040000000000025400000000000000000000025400000000033440000000000321700
5402110010000105010011000615401   991              000000010000000000000000000000000000000000000000000000000000000000000000000
5402110010000105010011000615401   992              000000010000000000000000000000000000000000000000000000000000000000000000000
5402110010000105010011000615401   999              000000010000000000000000000000000000000000000000000000000000000000000000000
5402398404000100010011000595401100001661           000000020000000000005600000000000000000000005600000000007380000000000081700
5402398404000100010011000595401100002665           000000020000000000005600000000000000000000005600000000007380000000000081700
54023984040001000100110005954011000031211          000000020000000000005600000000000000000000005600000000007380000000000081700
5402398404000100010011000595401100004658           000000020000000000005600000000000000000000005600000000007380000000000081700
5402398404000100010011000595401100005662           000000020000000000005600000000000000000000005600000000007380000000000081700
5402398404000100010011000595401100006664           000000020000000000005600000000000000000000005600000000007380000000000081700
5402398404000100010011000595401100007574           000000040000000000014000000000000000000000014000000000018410000000000161700
5402398404000100010011000595401100008584           000000040000000000014000000000000000000000014000000000018410000000000161700
5402398404000100010011000595401100009586           000000040000000000014000000000000000000000014000000000018410000000000161700
5402398404000100010011000595401100010583           000000040000000000014000000000000000000000014000000000018410000000000161700
5402398404000100010011000595401100011585           000000040000000000014000000000000000000000014000000000018410000000000161700
5402398404000100010011000595401100012531           000000040000000000026400000000000000000000026400000000034740000000000321700
5402398404000100010011000595401100013538           000000040000000000026400000000000000000000026400000000034740000000000321700
5402398404000100010011000595401100014535           000000040000000000026400000000000000000000026400000000034740000000000321700
5402398404000100010011000595401   991              000000010000000000000000000000000000000000000000000000000000000000000000000
5402398404000100010011000595401   992              000000010000000000000000000000000000000000000000000000000000000000000000000
5402398404000100010011000595401   999              000000010000000000000000000000000000000000000000000000000000000000000000000
54027243100001840100110005754011000011932          000000350000000000035000000000007000000000035000000000035000000000000001700
54027243100001840100110005754011000021             000003000000000000210000000000000000000000210000000000210000000000000001700
54027243100001840100110005754011000031514          000000050000000000022500000000000000000000022500000000030720000000001131700
54027243100001840100110005754011000041491          000000150000000000067500000000000000000000067500000000092140000000003381700
54027243100001840100110005754011000051195          000000150000000000067500000000000000000000067500000000092140000000003381700
54027243100001840100110005754011000061492          000000080000000000036000000000000000000000036000000000049140000000001801700
5402724310000184010011000575401100007114           000000100000000000084000000000000000000000084000000000114660000000004201700
5402724310000184010011000575401100008118           000000100000000000084000000000000000000000084000000000114660000000004201700
54027243100001840100110005754011000091323          000000080000000000067200000000000000000000067200000000091730000000003361700
5402724310000184010011000575401100010122           000000080000000000067200000000000000000000067200000000091730000000003361700
5402724310000184010011000575401100011124           000000050000000000042000000000000000000000042000000000057330000000002101700
5402724310000184010011000575401100012126           000000100000000000084000000000000000000000084000000000114660000000004201700
5402724310000184010011000575401100013107           000000050000000000060000000000000000000000060000000000081900000000003001700
5402724310000184010011000575401100014116           000000100000000000084000000000000000000000084000000000114660000000004201700
5402724310000184010011000575401100015121           000000100000000000084000000000000000000000084000000000114660000000004201700
5402724310000184010011000575401100016668           000000250000000000280000000000000000000000280000000000382200000000014001700
54027243100001840100110005754011000171325          000000200000000000240000000000000000000000240000000000327600000000012001700
54027243100001840100110005754011000181541          000000020000000000083200000000000000000000083200000000108990000000000641700
54027243100001840100110005754011000191545          000000020000000000083200000000000000000000083200000000108990000000000641700
5402724310000184010011000575401100020574           000000050000000000104000000000000000000000104000000000137280000000001601700
5402724310000184010011000575401100021576           000000050000000000104000000000000000000000104000000000137280000000001601700
5402724310000184010011000575401100022580           000000080000000000166400000000000000000000166400000000219650000000002561700
5402724310000184010011000575401100023584           000000050000000000104000000000000000000000104000000000137280000000001601700
5402724310000184010011000575401100024583           000000100000000000208000000000000000000000208000000000274560000000003201700
5402724310000184010011000575401100025585           000000070000000000145600000000000000000000145600000000192190000000002241700
5402724310000184010011000575401100026531           000000050000000000102000000000000000000000102000000000134680000000001601700
5402724310000184010011000575401100027532           000000100000000000204000000000000000000000204000000000269360000000003201700
5402724310000184010011000575401100028535           000000150000000000306000000000000000000000306000000000404040000000004801700
54027243100001840100110005754011000291625          000000270000000000388800000000000000000000388800000000530710000000019441700
5402724310000184010011000575401100030636           000000020000000000048000000000000000000000048000000000063390000000000761700
54027243100001840100110005754011000311388          000000020000000000048000000000000000000000048000000000063390000000000761700
54027243100001840100110005754011000321615          000000300000000000216000000000000000000000216000000000294840000000010801700
54027243100001840100110005754011000331736          000000300000000000360000000000000000000000360000000000491400000000018001700
54027243100001840100110005754011000341737          000000200000000000240000000000000000000000240000000000327600000000012001700
5402724310000184010011000575401   991              000000010000000000000000000000000000000000000000000000000000000000000000000
5402724310000184010011000575401   992              000000010000000000000000000000000000000000000000000000000000000000000000000
5402724310000184010011000575401   999              000000010000000000000000000000000000000000000000000000000000000000000000000
5402754284000137010011000785401100001116           000000010000000000012600000000000000000000012600000000017200000000000631700
540275428400013701001100078540110000263            000000010000000000013800000000000000000000013800000000018840000000000691700
54027542840001370100110007854011000031737          000000010000000000019200000000000000000000019200000000026210000000000961700
54027542840001370100110007854011000041321          000000010000000000011400000000000000000000011400000000015560000000000571700
54027542840001370100110007854011000051619          000000010000000000028000000000000000000000028000000000038220000000001401700
54027542840001370100110007854011000061491          000000010000000000006000000000000000000000006000000000008190000000000301700
54027542840001370100110007854011000071195          000000010000000000006000000000000000000000006000000000008190000000000301700
5402754284000137010011000785401100008583           000000020000000000006600000000000000000000006600000000008680000000000081700
5402754284000137010011000785401100009586           000000020000000000006600000000000000000000006600000000008680000000000081700
5402754284000137010011000785401100010585           000000010000000000003300000000000000000000003300000000004340000000000041700
5402754284000137010011000785401   991              000000010000000000000000000000000000000000000000000000000000000000000000000
5402754284000137010011000785401   992              000000010000000000000000000000000000000000000000000000000000000000000000000
5402754284000137010011000785401   999              000000010000000000000000000000000000000000000000000000000000000000000000000
5403066662000152010011000975904100001624           000000010000000000019000000000000000000000019000000000024960000000000201700
5403066662000152010011000975904100002563           000000010000000000019000000000000000000000019000000000024960000000000201700
5403066662000152010011000975904100003611           000000010000000000019000000000000000000000019000000000024960000000000201700
5403066662000152010011000975904100004562           000000010000000000019000000000000000000000019000000000024960000000000201700
5403066662000152010011000975904100005938           000000010000000000019000000000000000000000019000000000024960000000000201700
5403066662000152010011000975904100006625           000000010000000000019000000000000000000000019000000000024960000000000201700
5403066662000152010011000975904100007602           000000010000000000019000000000000000000000019000000000024960000000000201700
5403066662000152010011000975904100008622           000000010000000000019000000000000000000000019000000000024960000000000201700
5403066662000152010011000975904100009630           000000010000000000019000000000000000000000019000000000024960000000000201700
5403066662000152010011000975904100010608           000000010000000000019000000000000000000000019000000000024960000000000201700
54030666620001520100110009759041000111835          000000010000000000019000000000000000000000019000000000024960000000000201700
5403066662000152010011000975904100012623           000000010000000000019000000000000000000000019000000000024960000000000201700
5403066662000152010011000975904100013613           000000010000000000019000000000000000000000019000000000024960000000000201700
5403066662000152010011000975904100014627           000000010000000000019000000000000000000000019000000000024960000000000201700
54030666620001520100110009759041000151833          000000010000000000019000000000000000000000019000000000024960000000000201700
54030666620001520100110009759041000161834          000000010000000000019000000000000000000000019000000000024960000000000201700
54030666620001520100110009759041000171879          000000010000000000030500000000000000000000030500000000039910000000000201700
5403066662000152010011000975904100018621           000000010000000000019000000000000000000000019000000000024960000000000201700
5403066662000152010011000975904100019633           000000010000000000019000000000000000000000019000000000024960000000000201700
54030666620001520100110009759041000201736          000000010000000000020400000000000000000000020400000000027850000000001021700
54030666620001520100110009759041000211625          000000010000000000027200000000000000000000027200000000037130000000001361700
54030666620001520100110009759041000221615          000000010000000000016200000000000000000000016200000000022110000000000811700
5403066662000152010011000975904100023490           000000010000000000033600000000000000000000033600000000043680000000000001700
54030666620001520100110009759041000241747          000000020000000000016600000000000000000000016600000000021580000000000001700
54030666620001520100110009759041000251740          000000020000000000030000000000000000000000030000000000039000000000000001700
5403066662000152010011000975904100026312           000000010000000000030000000000000000000000030000000000039000000000000001700
5403066662000152010011000975904100027472           000000100000000000008000000000000000000000008000000000010400000000000001700
5403066662000152010011000975904100028483           000000100000000000011500000000000000000000011500000000014950000000000001700
5403066662000152010011000975904100029496           000000050000000000004500000000000000000000004500000000005850000000000001700
54030666620001520100110009759041000301             000000300000000000024000000000015000000000024000000000024000000000000001700
5403066662000152010011000975904   991              000000010000000000000000000000000000000000000000000000000000000000000000000
5403066662000152010011000975904   992              000000010000000000000000000000000000000000000000000000000000000000000000000
5403066662000152010011000975904   999              000000010000000000000000000000000000000000000000000000000000000000000000000
54031291160001130100110008754011000011             000000500000000000055000000000000000000000055000000000055000000000000001700
5403129116000113010011000875401   991              000000010000000000000000000000000000000000000000000000000000000000000000000
5403129116000113010011000875401   992              000000010000000000000000000000000000000000000000000000000000000000000000000
5403129116000113010011000875401   999              000000010000000000000000000000000000000000000000000000000000000000000000000
54031291160001130100110008854011000011             000000200000000000022000000000000000000000022000000000022000000000000001700
5403129116000113010011000885401   991              000000010000000000000000000000000000000000000000000000000000000000000000000
5403129116000113010011000885401   992              000000010000000000000000000000000000000000000000000000000000000000000000000
5403129116000113010011000885401   999              000000010000000000000000000000000000000000000000000000000000000000000000000
54031291160001130100110008954011000011             000000200000000000022000000000000000000000022000000000022000000000000001700
5403129116000113010011000895401   991              000000010000000000000000000000000000000000000000000000000000000000000000000
5403129116000113010011000895401   992              000000010000000000000000000000000000000000000000000000000000000000000000000
5403129116000113010011000895401   999              000000010000000000000000000000000000000000000000000000000000000000000000000
54031291160001130100110009054011000011             000000500000000000055000000000000000000000055000000000055000000000000001700
5403129116000113010011000905401   991              000000010000000000000000000000000000000000000000000000000000000000000000000
5403129116000113010011000905401   992              000000010000000000000000000000000000000000000000000000000000000000000000000
5403129116000113010011000905401   999              000000010000000000000000000000000000000000000000000000000000000000000000000
5403387988000181010011000815401100001585           000000020000000000006600000000000000000000006600000000008680000000000081700
5403387988000181010011000815401100002583           000000050000000000016500000000000000000000016500000000021710000000000201700
5403387988000181010011000815401100003662           000000040000000000009600000000000000000000009600000000012690000000000161700
5403387988000181010011000815401100004664           000000020000000000004800000000000000000000004800000000006340000000000081700
54033879880001810100110008154011000051514          000000010000000000006000000000000000000000006000000000008190000000000301700
54033879880001810100110008154011000061737          000000010000000000019200000000000000000000019200000000026210000000000961700
540338798800018101001100081540110000763            000000010000000000013800000000000000000000013800000000018840000000000691700
5403387988000181010011000815401100008126           000000010000000000010800000000000600000000010800000000014740000000000541700
5403387988000181010011000815401100009114           000000010000000000010800000000000600000000010800000000014740000000000541700
5403387988000181010011000815401100010120           000000010000000000010800000000000600000000010800000000014740000000000541700
5403387988000181010011000815401100011118           000000010000000000010800000000000600000000010800000000014740000000000541700
5403387988000181010011000815401100012116           000000010000000000010800000000001800000000010800000000014740000000000541700
5403387988000181010011000815401   991              000000010000000000000000000000000000000000000000000000000000000000000000000
5403387988000181010011000815401   992              000000010000000000000000000000000000000000000000000000000000000000000000000
5403387988000181010011000815401   999              000000010000000000000000000000000000000000000000000000000000000000000000000
5404445343000110010011000635401100001118           000000010000000000011400000000000000000000011400000000015560000000000571700
54044453430001100100110006354011000021737          000000010000000000019200000000000000000000019200000000026210000000000961700
5404445343000110010011000635401100003126           000000010000000000011400000000000000000000011400000000015560000000000571700
54044453430001100100110006354011000041491          000000010000000000006000000000000000000000006000000000008190000000000301700
5404445343000110010011000635401100005116           000000010000000000012600000000000000000000012600000000017200000000000631700
54044453430001100100110006354011000061             000000200000000000030000000000000000000000030000000000030000000000000001700
5404445343000110010011000635401100007662           000000020000000000004800000000000000000000004800000000006340000000000081700
54044453430001100100110006354011000081211          000000020000000000004800000000000000000000004800000000006340000000000081700
5404445343000110010011000635401100009664           000000010000000000002400000000000000000000002400000000003170000000000041700
5404445343000110010011000635401   991              000000010000000000000000000000000000000000000000000000000000000000000000000
5404445343000110010011000635401   992              000000010000000000000000000000000000000000000000000000000000000000000000000
5404445343000110010011000635401   999              000000010000000000000000000000000000000000000000000000000000000000000000000
54059196550001810100110009354011000011             000000120000000000015600000000000000000000015600000000015600000000000001700
5405919655000181010011000935401   991              000000010000000000000000000000000000000000000000000000000000000000000000000
5405919655000181010011000935401   992              000000010000000000000000000000000000000000000000000000000000000000000000000
5405919655000181010011000935401   999              000000010000000000000000000000000000000000000000000000000000000000000000000
5405959479000292010011000965401100001532           000000120000000000073800000000000000000000073800000000097190000000000961700
5405959479000292010011000965401100002535           000000120000000000073800000000000000000000073800000000097190000000000961700
5405959479000292010011000965401100003537           000000120000000000073800000000000000000000073800000000097190000000000961700
5405959479000292010011000965401100004538           000000120000000000073800000000000000000000073800000000097190000000000961700
54059594790002920100110009654011000051616          000000080000000000049200000000000000000000049200000000064790000000000641700
54059594790002920100110009654011000061617          000000040000000000024600000000000000000000024600000000032400000000000321700
54059594790002920100110009654011000071             000001000000000000120000000000000000000000120000000000120000000000000001700
5405959479000292010011000965401   991              000000010000000000000000000000000000000000000000000000000000000000000000000
5405959479000292010011000965401   992              000000010000000000000000000000000000000000000000000000000000000000000000000
5405959479000292010011000965401   999              000000010000000000000000000000000000000000000000000000000000000000000000000
5407030370000110010010000075401100001678           000000020000000000060000000000004400000000060000000000078000000000000001700
5407030370000110010010000075401   991              000000010000000000000000000000000000000000000000000000000000000000000000000
5407030370000110010010000075401   992              000000010000000000000000000000000000000000000000000000000000000000000000000
5407030370000110010010000075401   999              000000010000000000000000000000000000000000000000000000000000000000000000000
5407030370000110010010000085401100001678           000000030000000000090000000000006600000000090000000000117000000000000001700
5407030370000110010010000085401   991              000000010000000000000000000000000000000000000000000000000000000000000000000
5407030370000110010010000085401   992              000000010000000000000000000000000000000000000000000000000000000000000000000
5407030370000110010010000085401   999              000000010000000000000000000000000000000000000000000000000000000000000000000
54074833270001000100110006054011000011             000000200000000000026000000000000000000000026000000000026000000000000001700
54074833270001000100110006054011000021933          000000150000000000090000000000000000000000090000000000090000000000000001700
54074833270001000100110006054011000031941          000000100000000000060000000000000000000000060000000000060000000000000001700
54074833270001000100110006054011000041940          000000010000000000012000000000000000000000012000000000012000000000000001700
5407483327000100010011000605401   991              000000010000000000000000000000000000000000000000000000000000000000000000000
5407483327000100010011000605401   992              000000010000000000000000000000000000000000000000000000000000000000000000000
5407483327000100010011000605401   999              000000010000000000000000000000000000000000000000000000000000000000000000000
54082297910001380100110007554011000011737          000000010000000000019200000000000000000000019200000000026210000000000961700
54082297910001380100110007554011000021619          000000010000000000028000000000000000000000028000000000038220000000001401700
5408229791000138010011000755401100003670           000000010000000000024600000000000000000000024600000000033580000000001231700
5408229791000138010011000755401100004122           000000010000000000011400000000000000000000011400000000015560000000000571700
5408229791000138010011000755401   991              000000010000000000000000000000000000000000000000000000000000000000000000000
5408229791000138010011000755401   992              000000010000000000000000000000000000000000000000000000000000000000000000000
5408229791000138010011000755401   999              000000010000000000000000000000000000000000000000000000000000000000000000000
54083283530001270100100001054011000011941          000000100000000000060000000000000000000000060000000000000000000000000001700
54083283530001270100100001054011000021940          000000030000000000036000000000000000000000036000000000000000000000000001700
5408328353000127010010000105401   991              000000010000000000000000000000000000000000000000000000000000000000000000000
5408328353000127010010000105401   992              000000010000000000000000000000000000000000000000000000000000000000000000000
5408328353000127010010000105401   999              000000010000000000000000000000000000000000000000000000000000000000000000000
5408328353000127010010000115401100001569           000000010000000000041000000000005000000000041000000000000000000000000001700
5408328353000127010010000115401100002570           000000010000000000041000000000005000000000041000000000000000000000000001700
5408328353000127010010000115401100003678           000000010000000000028000000000004200000000028000000000000000000000000001700
5408328353000127010010000115401100004250           000000010000000000023000000000000000000000023000000000000000000000000001700
5408328353000127010010000115401100005460           000000010000000000004000000000000000000000004000000000000000000000000001700
54083283530001270100100001154011000061370          000000020000000000009200000000000000000000009200000000000000000000000001700
5408328353000127010010000115401100007425           000000020000000000005400000000000000000000005400000000000000000000000001700
5408328353000127010010000115401   991              000000010000000000000000000000000000000000000000000000000000000000000000000
5408328353000127010010000115401   992              000000010000000000000000000000000000000000000000000000000000000000000000000
5408328353000127010010000115401   999              000000010000000000000000000000000000000000000000000000000000000000000000000
54084634730001370100110008554011000011737          000000010000000000019200000000000000000000019200000000026210000000000961700
54084634730001370100110008554011000021625          000000010000000000025600000000000000000000025600000000034940000000001281700
54084634730001370100110008554011000031491          000000030000000000018000000000000000000000018000000000024570000000000901700
54084634730001370100110008554011000041195          000000020000000000012000000000000000000000012000000000016380000000000601700
54084634730001370100110008554011000051196          000000010000000000006000000000000000000000006000000000008190000000000301700
54084634730001370100110008554011000061514          000000010000000000006000000000000000000000006000000000008190000000000301700
54084634730001370100110008554011000071492          000000010000000000006000000000000000000000006000000000008190000000000301700
54084634730001370100110008554011000081619          000000010000000000028000000000000000000000028000000000038220000000001401700
5408463473000137010011000855401100009116           000000010000000000012600000000000000000000012600000000017200000000000631700
5408463473000137010011000855401100010126           000000010000000000011400000000000000000000011400000000015560000000000571700
5408463473000137010011000855401100011114           000000010000000000011400000000000000000000011400000000015560000000000571700
5408463473000137010011000855401100012118           000000010000000000011400000000000000000000011400000000015560000000000571700
54084634730001370100110008554011000131974          000000010000000000036000000000000000000000036000000000049140000000001801700
5408463473000137010011000855401100014662           000000020000000000004800000000000000000000004800000000006340000000000081700
54084634730001370100110008554011000151211          000000010000000000002400000000000000000000002400000000003170000000000041700
5408463473000137010011000855401100016664           000000010000000000002400000000000000000000002400000000003170000000000041700
5408463473000137010011000855401100017661           000000010000000000002400000000000000000000002400000000003170000000000041700
5408463473000137010011000855401100018583           000000020000000000006600000000000000000000006600000000008680000000000081700
5408463473000137010011000855401100019586           000000010000000000003300000000000000000000003300000000004340000000000041700
5408463473000137010011000855401100020585           000000010000000000003300000000000000000000003300000000004340000000000041700
5408463473000137010011000855401100021584           000000010000000000003300000000000000000000003300000000004340000000000041700
5408463473000137010011000855401   991              000000010000000000000000000000000000000000000000000000000000000000000000000
5408463473000137010011000855401   992              000000010000000000000000000000000000000000000000000000000000000000000000000
5408463473000137010011000855401   999              000000010000000000000000000000000000000000000000000000000000000000000000000
54107009610002430100110006554011000011             000000300000000000036000000000000000000000036000000000036000000000000001700
5410700961000243010011000655401100002535           000000040000000000024600000000000000000000024600000000032400000000000321700
5410700961000243010011000655401100003538           000000040000000000024600000000000000000000024600000000032400000000000321700
5410700961000243010011000655401100004537           000000040000000000024600000000000000000000024600000000032400000000000321700
5410700961000243010011000655401100005532           000000030000000000018450000000000000000000018450000000024300000000000241700
5410700961000243010011000655401100006536           000000030000000000018450000000000000000000018450000000024300000000000241700
5410700961000243010011000655401100007531           000000020000000000012300000000000000000000012300000000016200000000000161700
5410700961000243010011000655401100008583           000000080000000000024800000000000000000000024800000000032660000000000321700
5410700961000243010011000655401100009586           000000070000000000021700000000000000000000021700000000028570000000000281700
5410700961000243010011000655401100010585           000000060000000000018600000000000000000000018600000000024490000000000241700
5410700961000243010011000655401100011580           000000050000000000015500000000000000000000015500000000020410000000000201700
5410700961000243010011000655401100012584           000000060000000000018600000000000000000000018600000000024490000000000241700
5410700961000243010011000655401100013579           000000040000000000012400000000000000000000012400000000016330000000000161700
5410700961000243010011000655401100014576           000000020000000000006200000000000000000000006200000000008160000000000081700
5410700961000243010011000655401100015574           000000020000000000006200000000000000000000006200000000008160000000000081700
5410700961000243010011000655401100016662           000000050000000000010000000000000000000000010000000000013260000000000201700
54107009610002430100110006554011000171211          000000040000000000008000000000000000000000008000000000010610000000000161700
5410700961000243010011000655401100018664           000000030000000000006000000000000000000000006000000000007960000000000121700
5410700961000243010011000655401100019661           000000030000000000006000000000000000000000006000000000007960000000000121700
5410700961000243010011000655401100020665           000000030000000000006000000000000000000000006000000000007960000000000121700
5410700961000243010011000655401100021658           000000020000000000004000000000000000000000004000000000005300000000000081700
5410700961000243010011000655401   991              000000010000000000000000000000000000000000000000000000000000000000000000000
5410700961000243010011000655401   992              000000010000000000000000000000000000000000000000000000000000000000000000000
5410700961000243010011000655401   999              000000010000000000000000000000000000000000000000000000000000000000000000000
54108694280001290100110009554011000011             000000400000000000052000000000000000000000052000000000052000000000000001700
5410869428000129010011000955401   991              000000010000000000000000000000000000000000000000000000000000000000000000000
5410869428000129010011000955401   992              000000010000000000000000000000000000000000000000000000000000000000000000000
5410869428000129010011000955401   999              000000010000000000000000000000000000000000000000000000000000000000000000000
54242066170002070100110008454011000011             000000600000000000090000000000000000000000090000000000090000000000000001700
5424206617000207010011000845401   991              000000010000000000000000000000000000000000000000000000000000000000000000000
5424206617000207010011000845401   992              000000010000000000000000000000000000000000000000000000000000000000000000000
5424206617000207010011000845401   999              000000010000000000000000000000000000000000000000000000000000000000000000000
54242066170004790100110005854011000011             000000530000000000079500000000000000000000079500000000079500000000000001700
5424206617000479010011000585401   991              000000010000000000000000000000000000000000000000000000000000000000000000000
5424206617000479010011000585401   992              000000010000000000000000000000000000000000000000000000000000000000000000000
5424206617000479010011000585401   999              000000010000000000000000000000000000000000000000000000000000000000000000000
54242066170013600100110007954011000011             000000400000000000060000000000000000000000060000000000060000000000000001700
5424206617001360010011000795401   991              000000010000000000000000000000000000000000000000000000000000000000000000000
5424206617001360010011000795401   992              000000010000000000000000000000000000000000000000000000000000000000000000000
5424206617001360010011000795401   999              000000010000000000000000000000000000000000000000000000000000000000000000000
54242066170014400100110008254011000011             000000600000000000090000000000000000000000090000000000090000000000000001700
5424206617001440010011000825401   991              000000010000000000000000000000000000000000000000000000000000000000000000000
5424206617001440010011000825401   992              000000010000000000000000000000000000000000000000000000000000000000000000000
5424206617001440010011000825401   999              000000010000000000000000000000000000000000000000000000000000000000000000000
54242066170014400100110008354011000011             000000600000000000090000000000000000000000090000000000090000000000000001700
5424206617001440010011000835401   991              000000010000000000000000000000000000000000000000000000000000000000000000000
5424206617001440010011000835401   992              000000010000000000000000000000000000000000000000000000000000000000000000000
5424206617001440010011000835401   999              000000010000000000000000000000000000000000000000000000000000000000000000000
54352840250001490100110007154011000011             000000500000000000060000000000000000000000060000000000060000000000000001700
5435284025000149010011000715401100002662           000000020000000000004000000000000000000000004000000000005300000000000081700
54352840250001490100110007154011000031211          000000020000000000004000000000000000000000004000000000005300000000000081700
5435284025000149010011000715401100004664           000000020000000000004000000000000000000000004000000000005300000000000081700
5435284025000149010011000715401100005653           000000020000000000004000000000000000000000004000000000005300000000000081700
5435284025000149010011000715401100006661           000000020000000000004000000000000000000000004000000000005300000000000081700
5435284025000149010011000715401100007574           000000030000000000009300000000000000000000009300000000012250000000000121700
5435284025000149010011000715401100008583           000000020000000000006200000000000000000000006200000000008160000000000081700
5435284025000149010011000715401100009585           000000030000000000009300000000000000000000009300000000012250000000000121700
5435284025000149010011000715401100010576           000000020000000000006200000000000000000000006200000000008160000000000081700
5435284025000149010011000715401100011525           000000020000000000012300000000000000000000012300000000016200000000000161700
5435284025000149010011000715401100012528           000000020000000000012300000000000000000000012300000000016200000000000161700
54352840250001490100110007154011000131616          000000010000000000006150000000000000000000006150000000008100000000000081700
5435284025000149010011000715401   991              000000010000000000000000000000000000000000000000000000000000000000000000000
5435284025000149010011000715401   992              000000010000000000000000000000000000000000000000000000000000000000000000000
5435284025000149010011000715401   999              000000010000000000000000000000000000000000000000000000000000000000000000000
54407646640001410100110006854011000011619          000000010000000000028000000000000000000000028000000000038220000000001401700
5440764664000141010011000685401100002114           000000010000000000011400000000000000000000011400000000015560000000000571700
54407646640001410100110006854011000031975          000000010000000000036000000000000000000000036000000000049140000000001801700
54407646640001410100110006854011000041             000000100000000000015000000000000000000000015000000000015000000000000001700
5440764664000141010011000685401   991              000000010000000000000000000000000000000000000000000000000000000000000000000
5440764664000141010011000685401   992              000000010000000000000000000000000000000000000000000000000000000000000000000
5440764664000141010011000685401   999              000000010000000000000000000000000000000000000000000000000000000000000000000
54407715600001640100110006454011000011478          000000100000000000090000000000036500000000090000000000117000000000000001700
5440771560000164010011000645401100002250           000000010000000000020000000000003000000000020000000000026000000000000001700
54407715600001640100110006454011000031640          000000020000000000007000000000000400000000007000000000007070000000000001700
54407715600001640100110006454011000041678          000000020000000000007000000000000400000000007000000000009100000000000001700
54407715600001640100110006454011000051639          000000020000000000007000000000000400000000007000000000007070000000000001700
5440771560000164010011000645401   991              000000010000000000000000000000000000000000000000000000000000000000000000000
5440771560000164010011000645401   992              000000010000000000000000000000000000000000000000000000000000000000000000000
5440771560000164010011000645401   999              000000010000000000000000000000000000000000000000000000000000000000000000000
54407768900001420100110005554011000011             000000700000000000070000000000000000000000070000000000070000000000000001700
5440776890000142010011000555401   991              000000010000000000000000000000000000000000000000000000000000000000000000000
5440776890000142010011000555401   992              000000010000000000000000000000000000000000000000000000000000000000000000000
5440776890000142010011000555401   999              000000010000000000000000000000000000000000000000000000000000000000000000000
54407768900001420100110005654011000011             000000500000000000050000000000000000000000050000000000050000000000000001700
5440776890000142010011000565401   991              000000010000000000000000000000000000000000000000000000000000000000000000000
5440776890000142010011000565401   992              000000010000000000000000000000000000000000000000000000000000000000000000000
5440776890000142010011000565401   999              000000010000000000000000000000000000000000000000000000000000000000000000000
54407768900001420100110009454011000011             000000600000000000060000000000000000000000060000000000060000000000000001700
5440776890000142010011000945401   991              000000010000000000000000000000000000000000000000000000000000000000000000000
5440776890000142010011000945401   992              000000010000000000000000000000000000000000000000000000000000000000000000000
5440776890000142010011000945401   999              000000010000000000000000000000000000000000000000000000000000000000000000000
54408035460001030100110009254011000011             000000300000000000036000000000000000000000036000000000036000000000000001700
5440803546000103010011000925401   991              000000010000000000000000000000000000000000000000000000000000000000000000000
5440803546000103010011000925401   992              000000010000000000000000000000000000000000000000000000000000000000000000000
5440803546000103010011000925401   999              000000010000000000000000000000000000000000000000000000000000000000000000000
54700462970001010100110008654011000011615          000000010000000000014400000000000000000000014400000000019660000000000721700
547004629700010101001100086540110000263            000000010000000000013800000000000000000000013800000000018840000000000691700
54700462970001010100110008654011000031625          000000010000000000025600000000000000000000025600000000034940000000001281700
54700462970001010100110008654011000041736          000000010000000000019200000000000000000000019200000000026210000000000961700
54700462970001010100110008654011000051737          000000010000000000019200000000000000000000019200000000026210000000000961700
5470046297000101010011000865401   991              000000010000000000000000000000000000000000000000000000000000000000000000000
5470046297000101010011000865401   992              000000010000000000000000000000000000000000000000000000000000000000000000000
5470046297000101010011000865401   999              000000010000000000000000000000000000000000000000000000000000000000000000000
7520060401200604011             21050010GELO MINERAL STERBOM PC 3 KG                         PC    000001700000000000000000008
752006040120060401107           21050010PIC ESP FLOCOS                                       x30   005001700000000000000003000
752006040120060401114           21050010PIC D'F CAJÁ                                         x30   005001700000000000000003000
752006040120060401116           21050010PIC LAC CHOCOLATE                                    x30   005001700000000000000003000
752006040120060401118           21050010PIC D'F COCO                                         x30   005001700000000000000003000
752006040120060401119           21050010PIC LAC D.LEITE                                      x30   005001700000000000000003000
7520060401200604011195          21050010PIC C.F MORANGO                                      x30   005001700000000000000003000
7520060401200604011196          21050010PIC C.F CHICLETE                                     x30   005001700000000000000003000
752006040120060401120           21050010PIC D'F GOIABA                                       x30   005001700000000000000003000
752006040120060401121           21050010PIC LAC L.CONDENSADO                                 x30   005001700000000000000003000
7520060401200604011211          21050010SORV 700ML SERENATA                                  PT    000041700000000000000003000
752006040120060401122           21050010PIC D'F LIMÃO                                        x30   005001700000000000000003000
752006040120060401124           21050010PIC D'F MANGABA                                      x30   005001700000000000000003000
752006040120060401126           21050010PIC D'F MORANGO                                      x30   005001700000000000000003000
752006040120060401130           21050010PIC D'F UVA                                          x30   005001700000000000000003000
7520060401200604011321          21050010PIC D'F CUPUAÇU                                      x30   005001700000000000000003000
7520060401200604011323          21050010PIC D'F GRAVIOLA                                     x30   005001700000000000000003000
7520060401200604011325          21050010PIC POL NAPOLITANO                                   x30   005001700000000000000003000
7520060401200604011370          21050010PT-400 COPOBRAS PC 50UN                              PC    000001700000000000000003000
7520060401200604011388          21050010SORV ESP 10L STER CROC 5KG                           CX    000381700000000000000003000
7520060401200604011478          21050010CASQ M. Nº02 CX 324UN                                CX    000001700000000000000003000
7520060401200604011491          21050010PIC C.F CHOCOLATE                                    x30   005001700000000000000003000
7520060401200604011492          21050010PIC C.F TANGERINA                                    x30   005001700000000000000003000
7520060401200604011514          21050010PIC C.F CAJÁ                                         x30   005001700000000000000003000
7520060401200604011541          21050010SORV 1L LGT CHOC/CREME                               FD8   000041700000000000000003000
7520060401200604011541          21050010SORV 1L LGT CHOC/CREME                               PT    000041700000000000000003000
7520060401200604011545          21050010SORV 1L LGT NAPOLITANO                               FD8   000041700000000000000003000
7520060401200604011545          21050010SORV 1L LGT NAPOLITANO                               PT    000041700000000000000003000
7520060401200604011546          21050010SORV 1L LGT CREME                                    PT    000041700000000000000003000
7520060401200604011585          21050010PIC. N.GOIABA                                        x30   005001700000000000000003000
7520060401200604011615          21050010SORV M.S 18X100ML SORTIDO                            CX    005001700000000000000003000
7520060401200604011616          21050010SORV 2L GRAVIOLA                                     PT    000081700000000000000003000
7520060401200604011617          21050010SORV 2L CUPUAÇU                                      PT    000081700000000000000003000
7520060401200604011619          21050010PIC ESP BRIGADEIRO                                   x28   005001700000000000000003000
7520060401200604011625          21050010SORV AMOR 16X250ML SORTIDO                           CX    005001700000000000000003000
7520060401200604011639          21050010CAN WAFER 130G BAUN/CHOC                             PT    000001700000000000000000100
7520060401200604011640          21050010CAN WAFER 130G BAUN/MOR                              PT    000001700000000000000000100
7520060401200604011678          21050010CAN WAFER 130G CHOC/BAUNILHA                         PT    000001700000000000000003000
7520060401200604011736          21050010SORV STERZ 12X120ML BRI.MOR                          CX    005001700000000000000003000
7520060401200604011737          21050010SORV STERZ 12X120ML FLO.PAV                          CX    005001700000000000000003000
7520060401200604011740          21050010COB. CHIPS CHOC. AO LEITE                            kg    000001700000000000000003000
7520060401200604011747          21050010AMEIXA S CAROÇO                                      PC    000001700000000000000003000
7520060401200604011833          21050010SORV ESP 5L MENT/CHOC 2,5KG                          CX    000201700000000000000003000
7520060401200604011834          21050010SORV ESP 5L PISTACHE 2,5KG                           CX    000201700000000000000003000
7520060401200604011835          21050010SORV ESP 5L MAMÃO PAPAYA 2,5KG                       CX    000201700000000000000003000
7520060401200604011879          21050010SORV ESP 5L LGT GRAVIOLA 2,5KG                       CX    000201700000000000000003000
7520060401200604011932          21050010AGUA M. GF 20L STERBOM                               UN    000001700000000000000000010
7520060401200604011933          21050010AGUA M. GF 6X1,5L  STERBOM                           FD    000001700000000000000000023
7520060401200604011940          21050010AGUA M. CP 48X300ML STERBOM                          CX    000001700000000000000000060
7520060401200604011941          21050010AGUA M. GF 12X510ML STERBOM                          FD    000001700000000000000000025
7520060401200604011974          21050010PIC. LIGHT  CREME                                    x30   005001700000000000000003000
7520060401200604011975          21050010PIC. LIGHT CHOCOLATE                                 x30   005001700000000000000003000
752006040120060401250           21050010CASQ CASCÃO CX (4X30)                                CX    000001700000000000000003000
752006040120060401312           21050010COLHER BRANCA ACHA-PLAST CX 1000 UN                  CX    000001700000000000000003000
752006040120060401425           21050010PTT-100 COPOBRAS PC 100UN                            PC    000001700000000000000003000
752006040120060401460           21050010PT-200 COPOBRAS PC 50UN                              PC    000001700000000000000003000
752006040120060401472           21050010PRF-012 ZANATA PC 10UN                               PC    000001700000000000000003000
752006040120060401483           21050010PRF-015 ZANATA PC 10UN                               PC    000001700000000000000003000
752006040120060401490           21050010COB. SIBERKIMO  CHOC PT 4 KG                         kg    000001700000000000000003000
752006040120060401496           21050010GUARDANAPO FACEP 23X22 PC 50 UN                      PC    000001700000000000000003000
752006040120060401525           21050010SORV 2L ABACAXI                                      PT    000081700000000000000003000
752006040120060401527           21050010SORV 2L CAJÁ                                         PT    000081700000000000000003000
752006040120060401528           21050010SORV 2L CHOCOLATE                                    PT    000081700000000000000003000
752006040120060401530           21050010SORV 2L CREME                                        PT    000081700000000000000003000
752006040120060401531           21050010SORV 2L C.PASSAS                                     FD4   000081700000000000000003000
752006040120060401531           21050010SORV 2L C.PASSAS                                     PT    000081700000000000000003000
752006040120060401532           21050010SORV 2L FLOCOS                                       FD4   000081700000000000000003000
752006040120060401532           21050010SORV 2L FLOCOS                                       PT    000081700000000000000003000
752006040120060401535           21050010SORV 2L NAPOLITANO                                   FD4   000081700000000000000003000
752006040120060401535           21050010SORV 2L NAPOLITANO                                   PT    000081700000000000000003000
752006040120060401536           21050010SORV 2L N.GOIABA                                     PT    000081700000000000000003000
752006040120060401537           21050010SORV 2L PAVÊ                                         PT    000081700000000000000003000
752006040120060401538           21050010SORV 2L SERENATA                                     PT    000081700000000000000003000
752006040120060401562           21050010SORV ESP 5L CAJÁ 2,5KG                               CX    000201700000000000000003000
752006040120060401563           21050010SORV ESP 5L CHOCOLATE 2,5KG                          CX    000201700000000000000003000
752006040120060401569           21050010CALDA SOFT  CHOC. 10KG                               BD    000001700000000000000003000
752006040120060401570           21050010CALDA SOFT  CREME 10KG                               BD    000001700000000000000003000
752006040120060401574           21050010SORV 1L RET ABACAXI                                  FD8   000041700000000000000003000
752006040120060401574           21050010SORV 1L RET ABACAXI                                  PT    000041700000000000000003000
752006040120060401575           21050010SORV 1L RET CAJÁ                                     PT    000041700000000000000003000
752006040120060401576           21050010SORV 1L RET CHOCOLATE                                FD8   000041700000000000000003000
752006040120060401576           21050010SORV 1L RET CHOCOLATE                                PT    000041700000000000000003000
752006040120060401579           21050010SORV 1L RET C.PASSAS                                 PT    000041700000000000000003000
752006040120060401580           21050010SORV 1L RET FLOCOS                                   FD8   000041700000000000000003000
752006040120060401580           21050010SORV 1L RET FLOCOS                                   PT    000041700000000000000003000
752006040120060401583           21050010SORV 1L RET NAPOLITANO                               FD8   000041700000000000000003000
752006040120060401583           21050010SORV 1L RET NAPOLITANO                               PT    000041700000000000000003000
752006040120060401584           21050010SORV 1L RET N.GOIABA                                 FD8   000041700000000000000003000
752006040120060401584           21050010SORV 1L RET N.GOIABA                                 PT    000041700000000000000003000
752006040120060401585           21050010SORV 1L RET PAVÊ                                     FD8   000041700000000000000003000
752006040120060401585           21050010SORV 1L RET PAVÊ                                     PT    000041700000000000000003000
752006040120060401586           21050010SORV 1L RET SERENATA                                 PT    000041700000000000000003000
752006040120060401602           21050010SORV ESP 5L ABAC.SUIÇO 2,5KG                         CX    000201700000000000000003000
752006040120060401608           21050010SORV ESP 5L CREME 2,5KG                              CX    000201700000000000000003000
752006040120060401611           21050010SORV ESP 5L CUPUAÇU 2,5KG                            CX    000201700000000000000003000
752006040120060401613           21050010SORV ESP 5L LIMÃO 2,5KG                              CX    000201700000000000000003000
752006040120060401621           21050010SORV ESP 5L MESCLADO 2,5KG                           CX    000201700000000000000003000
752006040120060401622           21050010SORV ESP 5L MISTO 2,5KG                              CX    000201700000000000000003000
752006040120060401623           21050010SORV ESP 5L MORANGO 2,5KG                            CX    000201700000000000000003000
752006040120060401624           21050010SORV ESP 5L NAPOLITANO 2,5KG                         CX    000201700000000000000003000
752006040120060401625           21050010SORV ESP 5L N.UVA 2,5KG                              CX    000201700000000000000003000
752006040120060401627           21050010SORV ESP 5L PAVE 2,5KG                               CX    000201700000000000000003000
75200604012006040163            21050010SORV SUNDAE 12X150ML                                 x12   005001700000000000000003000
752006040120060401630           21050010SORV ESP 5L PRESTIGIO 2,5KG                          CX    000201700000000000000003000
752006040120060401633           21050010SORV ESP 5L C.BANANA 2,5KG                           CX    000201700000000000000003000
752006040120060401636           21050010SORV ESP 10L PRESTIGIO 5KG                           CX    000381700000000000000003000
752006040120060401649           21050010SORV 2L MANGABA                                      PT    000081700000000000000003000
752006040120060401652           21050010FREEZER FRICON HORIZONTAL                            UN    000001700000000000000000000
752006040120060401653           21050010SORV 700ML ABACAXI                                   PT    000041700000000000000003000
752006040120060401655           21050010SORV 700ML CAJÁ                                      PT    000041700000000000000003000
752006040120060401658           21050010SORV 700ML C.PASSAS                                  PT    000041700000000000000003000
752006040120060401661           21050010SORV 700ML FLOCOS                                    PT    000041700000000000000003000
752006040120060401662           21050010SORV 700ML NAPOLITANO                                PT    000041700000000000000003000
752006040120060401664           21050010SORV 700ML PAVÊ                                      PT    000041700000000000000003000
752006040120060401665           21050010SORV 700ML N.GOIABA                                  PT    000041700000000000000003000
752006040120060401668           21050010PIC POL BRIG BOM                                     x28   005001700000000000000003000
752006040120060401670           21050010PIC FOFUXO MORANGO                                   x30   005001700000000000000003000
752006040120060401671           21050010PIC FOFUXO CHOCOLATE                                 x30   005001700000000000000003000
752006040120060401678           21050010CASQ BISC CROC CX (6 X 50)                           CX    000001700000000000000003000
75200604012006040169            21050010SORV S.V 10L BRIGADEIRO                              CX    000381700000000000000003000
75200604012006040170            21050010SORV S.V 10L CAJÁ                                    CX    000381700000000000000003000
75200604012006040175            21050010SORV S.V 10L CROCANTE                                CX    000381700000000000000003000
75200604012006040188            21050010SORV S.V 10L NAPOLITANO                              CX    000381700000000000000003000
75200604012006040190            21050010SORV S.V 10L N.UVA                                   CX    000381700000000000000003000
75200604012006040192            21050010SORV S.V 10L SERENATA                                CX    000381700000000000000003000
752006040120060401938           21050010SORV ESP 5L B. CARAMELIZADA 2,5KG                    CX    000201700000000000000003000
90000000000000000000000000    500000004851000000485300000044540000049675000001269900000765                                   1
